{
  "_format": "hh-sol-artifact-1",
  "contractName": "ResearchFunding",
  "sourceName": "contracts/ResearchFunding.sol",
  "abi": [
    {
      "inputs": [],
      "stateMutability": "nonpayable",
      "type": "constructor"
    },
    {
      "anonymous": false,
      "inputs": [
        {
          "indexed": false,
          "internalType": "uint256",
          "name": "newFee",
          "type": "uint256"
        }
      ],
      "name": "FeeUpdated",
      "type": "event"
    },
    {
      "anonymous": false,
      "inputs": [
        {
          "indexed": false,
          "internalType": "uint256",
          "name": "id",
          "type": "uint256"
        },
        {
          "indexed": false,
          "internalType": "uint256",
          "name": "amount",
          "type": "uint256"
        },
        {
          "indexed": false,
          "internalType": "address",
          "name": "donor",
          "type": "address"
        }
      ],
      "name": "Funded",
      "type": "event"
    },
    {
      "anonymous": false,
      "inputs": [
        {
          "indexed": false,
          "internalType": "uint256",
          "name": "id",
          "type": "uint256"
        }
      ],
      "name": "ProjectActivated",
      "type": "event"
    },
    {
      "anonymous": false,
      "inputs": [
        {
          "indexed": false,
          "internalType": "uint256",
          "name": "id",
          "type": "uint256"
        },
        {
          "indexed": false,
          "internalType": "string",
          "name": "name",
          "type": "string"
        },
        {
          "indexed": false,
          "internalType": "address",
          "name": "recipient",
          "type": "address"
        },
        {
          "indexed": false,
          "internalType": "bool",
          "name": "isActive",
          "type": "bool"
        }
      ],
      "name": "ProjectCreated",
      "type": "event"
    },
    {
      "anonymous": false,
      "inputs": [
        {
          "indexed": false,
          "internalType": "uint256",
          "name": "id",
          "type": "uint256"
        }
      ],
      "name": "ProjectDeactivated",
      "type": "event"
    },
    {
      "anonymous": false,
      "inputs": [
        {
          "indexed": false,
          "internalType": "uint256",
          "name": "id",
          "type": "uint256"
        },
        {
          "indexed": false,
          "internalType": "uint256",
          "name": "amount",
          "type": "uint256"
        },
        {
          "indexed": false,
          "internalType": "address",
          "name": "recipient",
          "type": "address"
        }
      ],
      "name": "Withdrawn",
      "type": "event"
    },
    {
      "inputs": [
        {
          "internalType": "uint256",
          "name": "_id",
          "type": "uint256"
        }
      ],
      "name": "activateProject",
      "outputs": [],
      "stateMutability": "nonpayable",
      "type": "function"
    },
    {
      "inputs": [
        {
          "internalType": "string",
          "name": "_name",
          "type": "string"
        },
        {
          "internalType": "string",
          "name": "_description",
          "type": "string"
        },
        {
          "internalType": "address payable",
          "name": "_recipient",
          "type": "address"
        }
      ],
      "name": "createProject",
      "outputs": [],
      "stateMutability": "payable",
      "type": "function"
    },
    {
      "inputs": [
        {
          "internalType": "uint256",
          "name": "_id",
          "type": "uint256"
        }
      ],
      "name": "deactivateProject",
      "outputs": [],
      "stateMutability": "nonpayable",
      "type": "function"
    },
    {
      "inputs": [
        {
          "internalType": "uint256",
          "name": "_id",
          "type": "uint256"
        }
      ],
      "name": "fundProject",
      "outputs": [],
      "stateMutability": "payable",
      "type": "function"
    },
    {
      "inputs": [],
      "name": "getContractBalance",
      "outputs": [
        {
          "internalType": "uint256",
          "name": "",
          "type": "uint256"
        }
      ],
      "stateMutability": "view",
      "type": "function"
    },
    {
      "inputs": [
        {
          "internalType": "uint256",
          "name": "_id",
          "type": "uint256"
        }
      ],
      "name": "getProjectDetails",
      "outputs": [
        {
          "internalType": "string",
          "name": "",
          "type": "string"
        },
        {
          "internalType": "string",
          "name": "",
          "type": "string"
        },
        {
          "internalType": "uint256",
          "name": "",
          "type": "uint256"
        },
        {
          "internalType": "address",
          "name": "",
          "type": "address"
        },
        {
          "internalType": "bool",
          "name": "",
          "type": "bool"
        }
      ],
      "stateMutability": "view",
      "type": "function"
    },
    {
      "inputs": [
        {
          "internalType": "uint256",
          "name": "_id",
          "type": "uint256"
        }
      ],
      "name": "getProjectTransactions",
      "outputs": [
        {
          "components": [
            {
              "internalType": "uint256",
              "name": "projectId",
              "type": "uint256"
            },
            {
              "internalType": "uint256",
              "name": "amount",
              "type": "uint256"
            },
            {
              "internalType": "address",
              "name": "user",
              "type": "address"
            },
            {
              "internalType": "string",
              "name": "txType",
              "type": "string"
            },
            {
              "internalType": "uint256",
              "name": "timestamp",
              "type": "uint256"
            }
          ],
          "internalType": "struct ResearchFunding.Transaction[]",
          "name": "",
          "type": "tuple[]"
        }
      ],
      "stateMutability": "view",
      "type": "function"
    },
    {
      "inputs": [],
      "name": "owner",
      "outputs": [
        {
          "internalType": "address",
          "name": "",
          "type": "address"
        }
      ],
      "stateMutability": "view",
      "type": "function"
    },
    {
      "inputs": [],
      "name": "projectCount",
      "outputs": [
        {
          "internalType": "uint256",
          "name": "",
          "type": "uint256"
        }
      ],
      "stateMutability": "view",
      "type": "function"
    },
    {
      "inputs": [],
      "name": "projectCreationFee",
      "outputs": [
        {
          "internalType": "uint256",
          "name": "",
          "type": "uint256"
        }
      ],
      "stateMutability": "view",
      "type": "function"
    },
    {
      "inputs": [
        {
          "internalType": "uint256",
          "name": "",
          "type": "uint256"
        },
        {
          "internalType": "uint256",
          "name": "",
          "type": "uint256"
        }
      ],
      "name": "projectTransactions",
      "outputs": [
        {
          "internalType": "uint256",
          "name": "",
          "type": "uint256"
        }
      ],
      "stateMutability": "view",
      "type": "function"
    },
    {
      "inputs": [
        {
          "internalType": "uint256",
          "name": "",
          "type": "uint256"
        }
      ],
      "name": "projects",
      "outputs": [
        {
          "internalType": "uint256",
          "name": "id",
          "type": "uint256"
        },
        {
          "internalType": "string",
          "name": "name",
          "type": "string"
        },
        {
          "internalType": "string",
          "name": "description",
          "type": "string"
        },
        {
          "internalType": "uint256",
          "name": "currentFunding",
          "type": "uint256"
        },
        {
          "internalType": "address payable",
          "name": "recipient",
          "type": "address"
        },
        {
          "internalType": "bool",
          "name": "isActive",
          "type": "bool"
        }
      ],
      "stateMutability": "view",
      "type": "function"
    },
    {
      "inputs": [
        {
          "internalType": "uint256",
          "name": "",
          "type": "uint256"
        }
      ],
      "name": "transactions",
      "outputs": [
        {
          "internalType": "uint256",
          "name": "projectId",
          "type": "uint256"
        },
        {
          "internalType": "uint256",
          "name": "amount",
          "type": "uint256"
        },
        {
          "internalType": "address",
          "name": "user",
          "type": "address"
        },
        {
          "internalType": "string",
          "name": "txType",
          "type": "string"
        },
        {
          "internalType": "uint256",
          "name": "timestamp",
          "type": "uint256"
        }
      ],
      "stateMutability": "view",
      "type": "function"
    },
    {
      "inputs": [
        {
          "internalType": "uint256",
          "name": "_fee",
          "type": "uint256"
        }
      ],
      "name": "updateProjectCreationFee",
      "outputs": [],
      "stateMutability": "nonpayable",
      "type": "function"
    },
    {
      "inputs": [
        {
          "internalType": "uint256",
          "name": "_id",
          "type": "uint256"
        }
      ],
      "name": "withdraw",
      "outputs": [],
      "stateMutability": "nonpayable",
      "type": "function"
    },
    {
      "inputs": [],
      "name": "withdrawFees",
      "outputs": [],
      "stateMutability": "nonpayable",
      "type": "function"
    }
  ],
  "bytecode": "0x608060405260006001556611c37937e08000600255348015601f57600080fd5b50336000806101000a81548173ffffffffffffffffffffffffffffffffffffffff021916908373ffffffffffffffffffffffffffffffffffffffff160217905550612c498061006f6000396000f3fe6080604052600436106100f35760003560e01c80636bad65411161008a5780639ace38c2116100595780639ace38c2146102f1578063c0c55b1714610332578063eca8d23c1461036f578063fc1ce66c14610398576100f3565b80636bad6541146102545780636c563abe1461027f5780636f9fb98a1461029b5780638da5cb5b146102c6576100f3565b8063436e6958116100c6578063436e6958146101b7578063476343ee146101e05780635f8439e3146101f757806360ae1e9214610238576100f3565b8063107046bd146100f85780632e1a7d4d1461013a57806336fbad261461016357806341544a821461018e575b600080fd5b34801561010457600080fd5b5061011f600480360381019061011a9190611b25565b6103d5565b60405161013196959493929190611c4d565b60405180910390f35b34801561014657600080fd5b50610161600480360381019061015c9190611b25565b61054e565b005b34801561016f57600080fd5b506101786109d8565b6040516101859190611cbc565b60405180910390f35b34801561019a57600080fd5b506101b560048036038101906101b09190611b25565b6109de565b005b3480156101c357600080fd5b506101de60048036038101906101d99190611b25565b610b39565b005b3480156101ec57600080fd5b506101f5610d01565b005b34801561020357600080fd5b5061021e60048036038101906102199190611b25565b610ea8565b60405161022f959493929190611cf8565b60405180910390f35b610252600480360381019061024d9190611eba565b6110a7565b005b34801561026057600080fd5b5061026961131f565b6040516102769190611cbc565b60405180910390f35b61029960048036038101906102949190611b25565b611325565b005b3480156102a757600080fd5b506102b061159d565b6040516102bd9190611cbc565b60405180910390f35b3480156102d257600080fd5b506102db611634565b6040516102e89190611f45565b60405180910390f35b3480156102fd57600080fd5b5061031860048036038101906103139190611b25565b611658565b604051610329959493929190611f60565b60405180910390f35b34801561033e57600080fd5b5061035960048036038101906103549190611b25565b611746565b604051610366919061215a565b60405180910390f35b34801561037b57600080fd5b5061039660048036038101906103919190611b25565b611996565b005b3480156103a457600080fd5b506103bf60048036038101906103ba919061217c565b611a65565b6040516103cc9190611cbc565b60405180910390f35b60036020528060005260406000206000915090508060000154908060010180546103fe906121eb565b80601f016020809104026020016040519081016040528092919081815260200182805461042a906121eb565b80156104775780601f1061044c57610100808354040283529160200191610477565b820191906000526020600020905b81548152906001019060200180831161045a57829003601f168201915b50505050509080600201805461048c906121eb565b80601f01602080910402602001604051908101604052809291908181526020018280546104b8906121eb565b80156105055780601f106104da57610100808354040283529160200191610505565b820191906000526020600020905b8154815290600101906020018083116104e857829003601f168201915b5050505050908060030154908060040160009054906101000a900473ffffffffffffffffffffffffffffffffffffffff16908060040160149054906101000a900460ff16905086565b8060008054906101000a900473ffffffffffffffffffffffffffffffffffffffff1673ffffffffffffffffffffffffffffffffffffffff163373ffffffffffffffffffffffffffffffffffffffff16148061060a57506003600082815260200190815260200160002060040160009054906101000a900473ffffffffffffffffffffffffffffffffffffffff1673ffffffffffffffffffffffffffffffffffffffff163373ffffffffffffffffffffffffffffffffffffffff16145b610649576040517f08c379a00000000000000000000000000000000000000000000000000000000081526004016106409061228e565b60405180910390fd5b816003600082815260200190815260200160002060040160149054906101000a900460ff166106ad576040517f08c379a00000000000000000000000000000000000000000000000000000000081526004016106a4906122fa565b60405180910390fd5b6000600360008581526020019081526020016000209050600081600301541161070b576040517f08c379a000000000000000000000000000000000000000000000000000000000815260040161070290612366565b60405180910390fd5b6000816003015490506000826003018190555060008260040160009054906101000a900473ffffffffffffffffffffffffffffffffffffffff1673ffffffffffffffffffffffffffffffffffffffff1682604051610768906123b7565b60006040518083038185875af1925050503d80600081146107a5576040519150601f19603f3d011682016040523d82523d6000602084013e6107aa565b606091505b50509050806107ee576040517f08c379a00000000000000000000000000000000000000000000000000000000081526004016107e590612418565b60405180910390fd5b6000600480549050905060046040518060a001604052808981526020018581526020018660040160009054906101000a900473ffffffffffffffffffffffffffffffffffffffff1673ffffffffffffffffffffffffffffffffffffffff1681526020016040518060400160405280600881526020017f77697468647261770000000000000000000000000000000000000000000000008152508152602001428152509080600181540180825580915050600190039060005260206000209060050201600090919091909150600082015181600001556020820151816001015560408201518160020160006101000a81548173ffffffffffffffffffffffffffffffffffffffff021916908373ffffffffffffffffffffffffffffffffffffffff160217905550606082015181600301908161092991906125e4565b50608082015181600401555050600560008881526020019081526020016000208190806001815401808255809150506001900390600052602060002001600090919091909150557f02ffa641367f5b897c0f8be81bce51f2ef055b4113d7a1e4fd082feea749bf5287848660040160009054906101000a900473ffffffffffffffffffffffffffffffffffffffff166040516109c79392919061270b565b60405180910390a150505050505050565b60015481565b60008054906101000a900473ffffffffffffffffffffffffffffffffffffffff1673ffffffffffffffffffffffffffffffffffffffff163373ffffffffffffffffffffffffffffffffffffffff1614610a6c576040517f08c379a0000000000000000000000000000000000000000000000000000000008152600401610a63906127b4565b60405180910390fd5b6003600082815260200190815260200160002060040160149054906101000a900460ff1615610ad0576040517f08c379a0000000000000000000000000000000000000000000000000000000008152600401610ac790612820565b60405180910390fd5b60016003600083815260200190815260200160002060040160146101000a81548160ff0219169083151502179055507fa24f98fafda171640bd6bc2dfff773d30beccd904d6c386e658a1c79f9e7666381604051610b2e9190611cbc565b60405180910390a150565b8060008054906101000a900473ffffffffffffffffffffffffffffffffffffffff1673ffffffffffffffffffffffffffffffffffffffff163373ffffffffffffffffffffffffffffffffffffffff161480610bf557506003600082815260200190815260200160002060040160009054906101000a900473ffffffffffffffffffffffffffffffffffffffff1673ffffffffffffffffffffffffffffffffffffffff163373ffffffffffffffffffffffffffffffffffffffff16145b610c34576040517f08c379a0000000000000000000000000000000000000000000000000000000008152600401610c2b9061228e565b60405180910390fd5b6003600083815260200190815260200160002060040160149054906101000a900460ff16610c97576040517f08c379a0000000000000000000000000000000000000000000000000000000008152600401610c8e9061288c565b60405180910390fd5b60006003600084815260200190815260200160002060040160146101000a81548160ff0219169083151502179055507f32619b1c1bac9b073234f8ace80ba5659d4a461276966921ca62cc24a32c7ff382604051610cf59190611cbc565b60405180910390a15050565b60008054906101000a900473ffffffffffffffffffffffffffffffffffffffff1673ffffffffffffffffffffffffffffffffffffffff163373ffffffffffffffffffffffffffffffffffffffff1614610d8f576040517f08c379a0000000000000000000000000000000000000000000000000000000008152600401610d86906127b4565b60405180910390fd5b600047905060008111610dd7576040517f08c379a0000000000000000000000000000000000000000000000000000000008152600401610dce906128f8565b60405180910390fd5b60008060009054906101000a900473ffffffffffffffffffffffffffffffffffffffff1673ffffffffffffffffffffffffffffffffffffffff1682604051610e1e906123b7565b60006040518083038185875af1925050503d8060008114610e5b576040519150601f19603f3d011682016040523d82523d6000602084013e610e60565b606091505b5050905080610ea4576040517f08c379a0000000000000000000000000000000000000000000000000000000008152600401610e9b90612418565b60405180910390fd5b5050565b606080600080600080600360008881526020019081526020016000206040518060c001604052908160008201548152602001600182018054610ee9906121eb565b80601f0160208091040260200160405190810160405280929190818152602001828054610f15906121eb565b8015610f625780601f10610f3757610100808354040283529160200191610f62565b820191906000526020600020905b815481529060010190602001808311610f4557829003601f168201915b50505050508152602001600282018054610f7b906121eb565b80601f0160208091040260200160405190810160405280929190818152602001828054610fa7906121eb565b8015610ff45780601f10610fc957610100808354040283529160200191610ff4565b820191906000526020600020905b815481529060010190602001808311610fd757829003601f168201915b50505050508152602001600382015481526020016004820160009054906101000a900473ffffffffffffffffffffffffffffffffffffffff1673ffffffffffffffffffffffffffffffffffffffff1673ffffffffffffffffffffffffffffffffffffffff1681526020016004820160149054906101000a900460ff161515151581525050905080602001518160400151826060015183608001518460a00151955095509550955095505091939590929450565b6002543410156110ec576040517f08c379a00000000000000000000000000000000000000000000000000000000081526004016110e39061298a565b60405180910390fd5b60025434111561114b573373ffffffffffffffffffffffffffffffffffffffff166108fc6002543461111e91906129d9565b9081150290604051600060405180830381858888f19350505050158015611149573d6000803e3d6000fd5b505b600073ffffffffffffffffffffffffffffffffffffffff168173ffffffffffffffffffffffffffffffffffffffff16036111ba576040517f08c379a00000000000000000000000000000000000000000000000000000000081526004016111b190612a59565b60405180910390fd5b600160008154809291906111cd90612a79565b91905055506040518060c001604052806001548152602001848152602001838152602001600081526020018273ffffffffffffffffffffffffffffffffffffffff1681526020016001151581525060036000600154815260200190815260200160002060008201518160000155602082015181600101908161124f91906125e4565b50604082015181600201908161126591906125e4565b506060820151816003015560808201518160040160006101000a81548173ffffffffffffffffffffffffffffffffffffffff021916908373ffffffffffffffffffffffffffffffffffffffff16021790555060a08201518160040160146101000a81548160ff0219169083151502179055509050507f52072c0d054208d6383d75d3ccccf92145d7eb8cd784fa1c4393f5badb2c495b600154848360016040516113129493929190612ac1565b60405180910390a1505050565b60025481565b806003600082815260200190815260200160002060040160149054906101000a900460ff16611389576040517f08c379a0000000000000000000000000000000000000000000000000000000008152600401611380906122fa565b60405180910390fd5b6000600360008481526020019081526020016000209050600034116113e3576040517f08c379a00000000000000000000000000000000000000000000000000000000081526004016113da90612b59565b60405180910390fd5b348160030160008282546113f79190612b79565b925050819055506000600480549050905060046040518060a001604052808681526020013481526020013373ffffffffffffffffffffffffffffffffffffffff1681526020016040518060400160405280600481526020017f66756e64000000000000000000000000000000000000000000000000000000008152508152602001428152509080600181540180825580915050600190039060005260206000209060050201600090919091909150600082015181600001556020820151816001015560408201518160020160006101000a81548173ffffffffffffffffffffffffffffffffffffffff021916908373ffffffffffffffffffffffffffffffffffffffff160217905550606082015181600301908161151591906125e4565b50608082015181600401555050600560008581526020019081526020016000208190806001815401808255809150506001900390600052602060002001600090919091909150557f2fdf62f5c0eab6215e63610ec1dc0acf8ed2f6d38ab5bdf08fcffc99be3c6ba884343360405161158f93929190612bad565b60405180910390a150505050565b60008060009054906101000a900473ffffffffffffffffffffffffffffffffffffffff1673ffffffffffffffffffffffffffffffffffffffff163373ffffffffffffffffffffffffffffffffffffffff161461162e576040517f08c379a0000000000000000000000000000000000000000000000000000000008152600401611625906127b4565b60405180910390fd5b47905090565b60008054906101000a900473ffffffffffffffffffffffffffffffffffffffff1681565b6004818154811061166857600080fd5b90600052602060002090600502016000915090508060000154908060010154908060020160009054906101000a900473ffffffffffffffffffffffffffffffffffffffff16908060030180546116bd906121eb565b80601f01602080910402602001604051908101604052809291908181526020018280546116e9906121eb565b80156117365780601f1061170b57610100808354040283529160200191611736565b820191906000526020600020905b81548152906001019060200180831161171957829003601f168201915b5050505050908060040154905085565b60606000600560008481526020019081526020016000208054806020026020016040519081016040528092919081815260200182805480156117a757602002820191906000526020600020905b815481526020019060010190808311611793575b505050505090506000815167ffffffffffffffff8111156117cb576117ca611d63565b5b60405190808252806020026020018201604052801561180457816020015b6117f1611a96565b8152602001906001900390816117e95790505b50905060005b825181101561198b57600483828151811061182857611827612be4565b5b60200260200101518154811061184157611840612be4565b5b90600052602060002090600502016040518060a001604052908160008201548152602001600182015481526020016002820160009054906101000a900473ffffffffffffffffffffffffffffffffffffffff1673ffffffffffffffffffffffffffffffffffffffff1673ffffffffffffffffffffffffffffffffffffffff1681526020016003820180546118d4906121eb565b80601f0160208091040260200160405190810160405280929190818152602001828054611900906121eb565b801561194d5780601f106119225761010080835404028352916020019161194d565b820191906000526020600020905b81548152906001019060200180831161193057829003601f168201915b5050505050815260200160048201548152505082828151811061197357611972612be4565b5b6020026020010181905250808060010191505061180a565b508092505050919050565b60008054906101000a900473ffffffffffffffffffffffffffffffffffffffff1673ffffffffffffffffffffffffffffffffffffffff163373ffffffffffffffffffffffffffffffffffffffff1614611a24576040517f08c379a0000000000000000000000000000000000000000000000000000000008152600401611a1b906127b4565b60405180910390fd5b806002819055507f8c4d35e54a3f2ef1134138fd8ea3daee6a3c89e10d2665996babdf70261e2c7681604051611a5a9190611cbc565b60405180910390a150565b60056020528160005260406000208181548110611a8157600080fd5b90600052602060002001600091509150505481565b6040518060a001604052806000815260200160008152602001600073ffffffffffffffffffffffffffffffffffffffff16815260200160608152602001600081525090565b6000604051905090565b600080fd5b600080fd5b6000819050919050565b611b0281611aef565b8114611b0d57600080fd5b50565b600081359050611b1f81611af9565b92915050565b600060208284031215611b3b57611b3a611ae5565b5b6000611b4984828501611b10565b91505092915050565b611b5b81611aef565b82525050565b600081519050919050565b600082825260208201905092915050565b60005b83811015611b9b578082015181840152602081019050611b80565b60008484015250505050565b6000601f19601f8301169050919050565b6000611bc382611b61565b611bcd8185611b6c565b9350611bdd818560208601611b7d565b611be681611ba7565b840191505092915050565b600073ffffffffffffffffffffffffffffffffffffffff82169050919050565b6000611c1c82611bf1565b9050919050565b611c2c81611c11565b82525050565b60008115159050919050565b611c4781611c32565b82525050565b600060c082019050611c626000830189611b52565b8181036020830152611c748188611bb8565b90508181036040830152611c888187611bb8565b9050611c976060830186611b52565b611ca46080830185611c23565b611cb160a0830184611c3e565b979650505050505050565b6000602082019050611cd16000830184611b52565b92915050565b6000611ce282611bf1565b9050919050565b611cf281611cd7565b82525050565b600060a0820190508181036000830152611d128188611bb8565b90508181036020830152611d268187611bb8565b9050611d356040830186611b52565b611d426060830185611ce9565b611d4f6080830184611c3e565b9695505050505050565b600080fd5b600080fd5b7f4e487b7100000000000000000000000000000000000000000000000000000000600052604160045260246000fd5b611d9b82611ba7565b810181811067ffffffffffffffff82111715611dba57611db9611d63565b5b80604052505050565b6000611dcd611adb565b9050611dd98282611d92565b919050565b600067ffffffffffffffff821115611df957611df8611d63565b5b611e0282611ba7565b9050602081019050919050565b82818337600083830152505050565b6000611e31611e2c84611dde565b611dc3565b905082815260208101848484011115611e4d57611e4c611d5e565b5b611e58848285611e0f565b509392505050565b600082601f830112611e7557611e74611d59565b5b8135611e85848260208601611e1e565b91505092915050565b611e9781611c11565b8114611ea257600080fd5b50565b600081359050611eb481611e8e565b92915050565b600080600060608486031215611ed357611ed2611ae5565b5b600084013567ffffffffffffffff811115611ef157611ef0611aea565b5b611efd86828701611e60565b935050602084013567ffffffffffffffff811115611f1e57611f1d611aea565b5b611f2a86828701611e60565b9250506040611f3b86828701611ea5565b9150509250925092565b6000602082019050611f5a6000830184611ce9565b92915050565b600060a082019050611f756000830188611b52565b611f826020830187611b52565b611f8f6040830186611ce9565b8181036060830152611fa18185611bb8565b9050611fb06080830184611b52565b9695505050505050565b600081519050919050565b600082825260208201905092915050565b6000819050602082019050919050565b611fef81611aef565b82525050565b611ffe81611cd7565b82525050565b600082825260208201905092915050565b600061202082611b61565b61202a8185612004565b935061203a818560208601611b7d565b61204381611ba7565b840191505092915050565b600060a0830160008301516120666000860182611fe6565b5060208301516120796020860182611fe6565b50604083015161208c6040860182611ff5565b50606083015184820360608601526120a48282612015565b91505060808301516120b96080860182611fe6565b508091505092915050565b60006120d0838361204e565b905092915050565b6000602082019050919050565b60006120f082611fba565b6120fa8185611fc5565b93508360208202850161210c85611fd6565b8060005b85811015612148578484038952815161212985826120c4565b9450612134836120d8565b925060208a01995050600181019050612110565b50829750879550505050505092915050565b6000602082019050818103600083015261217481846120e5565b905092915050565b6000806040838503121561219357612192611ae5565b5b60006121a185828601611b10565b92505060206121b285828601611b10565b9150509250929050565b7f4e487b7100000000000000000000000000000000000000000000000000000000600052602260045260246000fd5b6000600282049050600182168061220357607f821691505b602082108103612216576122156121bc565b5b50919050565b7f4f6e6c79206f776e6572206f7220726563697069656e742063616e207065726660008201527f6f726d207468697320616374696f6e0000000000000000000000000000000000602082015250565b6000612278602f83611b6c565b91506122838261221c565b604082019050919050565b600060208201905081810360008301526122a78161226b565b9050919050565b7f50726f6a656374206973206e6f74206163746976650000000000000000000000600082015250565b60006122e4601583611b6c565b91506122ef826122ae565b602082019050919050565b60006020820190508181036000830152612313816122d7565b9050919050565b7f4e6f2066756e647320746f207769746864726177000000000000000000000000600082015250565b6000612350601483611b6c565b915061235b8261231a565b602082019050919050565b6000602082019050818103600083015261237f81612343565b9050919050565b600081905092915050565b50565b60006123a1600083612386565b91506123ac82612391565b600082019050919050565b60006123c282612394565b9150819050919050565b7f5472616e73666572206661696c65640000000000000000000000000000000000600082015250565b6000612402600f83611b6c565b915061240d826123cc565b602082019050919050565b60006020820190508181036000830152612431816123f5565b9050919050565b60008190508160005260206000209050919050565b60006020601f8301049050919050565b600082821b905092915050565b60006008830261249a7fffffffffffffffffffffffffffffffffffffffffffffffffffffffffffffffff8261245d565b6124a4868361245d565b95508019841693508086168417925050509392505050565b6000819050919050565b60006124e16124dc6124d784611aef565b6124bc565b611aef565b9050919050565b6000819050919050565b6124fb836124c6565b61250f612507826124e8565b84845461246a565b825550505050565b600090565b612524612517565b61252f8184846124f2565b505050565b5b818110156125535761254860008261251c565b600181019050612535565b5050565b601f8211156125985761256981612438565b6125728461244d565b81016020851015612581578190505b61259561258d8561244d565b830182612534565b50505b505050565b600082821c905092915050565b60006125bb6000198460080261259d565b1980831691505092915050565b60006125d483836125aa565b9150826002028217905092915050565b6125ed82611b61565b67ffffffffffffffff81111561260657612605611d63565b5b61261082546121eb565b61261b828285612557565b600060209050601f83116001811461264e576000841561263c578287015190505b61264685826125c8565b8655506126ae565b601f19841661265c86612438565b60005b828110156126845784890151825560018201915060208501945060208101905061265f565b868310156126a1578489015161269d601f8916826125aa565b8355505b6001600288020188555050505b505050505050565b60006126d16126cc6126c784611bf1565b6124bc565b611bf1565b9050919050565b60006126e3826126b6565b9050919050565b60006126f5826126d8565b9050919050565b612705816126ea565b82525050565b60006060820190506127206000830186611b52565b61272d6020830185611b52565b61273a60408301846126fc565b949350505050565b7f4f6e6c7920746865206f776e65722063616e20706572666f726d20746869732060008201527f616374696f6e0000000000000000000000000000000000000000000000000000602082015250565b600061279e602683611b6c565b91506127a982612742565b604082019050919050565b600060208201905081810360008301526127cd81612791565b9050919050565b7f50726f6a65637420697320616c72656164792061637469766500000000000000600082015250565b600061280a601983611b6c565b9150612815826127d4565b602082019050919050565b60006020820190508181036000830152612839816127fd565b9050919050565b7f50726f6a65637420697320616c726561647920696e6163746976650000000000600082015250565b6000612876601b83611b6c565b915061288182612840565b602082019050919050565b600060208201905081810360008301526128a581612869565b9050919050565b7f4e6f206665657320746f20776974686472617700000000000000000000000000600082015250565b60006128e2601383611b6c565b91506128ed826128ac565b602082019050919050565b60006020820190508181036000830152612911816128d5565b9050919050565b7f496e73756666696369656e742066656520666f722070726f6a6563742063726560008201527f6174696f6e000000000000000000000000000000000000000000000000000000602082015250565b6000612974602583611b6c565b915061297f82612918565b604082019050919050565b600060208201905081810360008301526129a381612967565b9050919050565b7f4e487b7100000000000000000000000000000000000000000000000000000000600052601160045260246000fd5b60006129e482611aef565b91506129ef83611aef565b9250828203905081811115612a0757612a066129aa565b5b92915050565b7f496e76616c696420726563697069656e74206164647265737300000000000000600082015250565b6000612a43601983611b6c565b9150612a4e82612a0d565b602082019050919050565b60006020820190508181036000830152612a7281612a36565b9050919050565b6000612a8482611aef565b91507fffffffffffffffffffffffffffffffffffffffffffffffffffffffffffffffff8203612ab657612ab56129aa565b5b600182019050919050565b6000608082019050612ad66000830187611b52565b8181036020830152612ae88186611bb8565b9050612af760408301856126fc565b612b046060830184611c3e565b95945050505050565b7f446f6e6174696f6e206d7573742062652067726561746572207468616e203000600082015250565b6000612b43601f83611b6c565b9150612b4e82612b0d565b602082019050919050565b60006020820190508181036000830152612b7281612b36565b9050919050565b6000612b8482611aef565b9150612b8f83611aef565b9250828201905080821115612ba757612ba66129aa565b5b92915050565b6000606082019050612bc26000830186611b52565b612bcf6020830185611b52565b612bdc6040830184611ce9565b949350505050565b7f4e487b7100000000000000000000000000000000000000000000000000000000600052603260045260246000fdfea26469706673582212204f9a25e6de1237cebb3f386da6c1c47fa38dda2f13ebfcb8c341ca94bba4ce0664736f6c634300081c0033",
  "linkReferences": {},
  "deployedLinkReferences": {}
}