{
  "_format": "hh-sol-artifact-1",
  "contractName": "ResearchFunding",
  "sourceName": "contracts/ResearchFunding.sol",
  "abi": [
    {
      "inputs": [],
      "stateMutability": "nonpayable",
      "type": "constructor"
    },
    {
      "anonymous": false,
      "inputs": [
        {
          "indexed": false,
          "internalType": "uint256",
          "name": "newFee",
          "type": "uint256"
        }
      ],
      "name": "FeeUpdated",
      "type": "event"
    },
    {
      "anonymous": false,
      "inputs": [
        {
          "indexed": false,
          "internalType": "uint256",
          "name": "id",
          "type": "uint256"
        },
        {
          "indexed": false,
          "internalType": "uint256",
          "name": "amount",
          "type": "uint256"
        },
        {
          "indexed": false,
          "internalType": "address",
          "name": "donor",
          "type": "address"
        }
      ],
      "name": "Funded",
      "type": "event"
    },
    {
      "anonymous": false,
      "inputs": [
        {
          "indexed": false,
          "internalType": "uint256",
          "name": "id",
          "type": "uint256"
        }
      ],
      "name": "ProjectActivated",
      "type": "event"
    },
    {
      "anonymous": false,
      "inputs": [
        {
          "indexed": false,
          "internalType": "uint256",
          "name": "id",
          "type": "uint256"
        },
        {
          "indexed": false,
          "internalType": "string",
          "name": "name",
          "type": "string"
        },
        {
          "indexed": false,
          "internalType": "address",
          "name": "recipient",
          "type": "address"
        },
        {
          "indexed": false,
          "internalType": "bool",
          "name": "isActive",
          "type": "bool"
        }
      ],
      "name": "ProjectCreated",
      "type": "event"
    },
    {
      "anonymous": false,
      "inputs": [
        {
          "indexed": false,
          "internalType": "uint256",
          "name": "id",
          "type": "uint256"
        }
      ],
      "name": "ProjectDeactivated",
      "type": "event"
    },
    {
      "anonymous": false,
      "inputs": [
        {
          "indexed": false,
          "internalType": "uint256",
          "name": "id",
          "type": "uint256"
        },
        {
          "indexed": false,
          "internalType": "uint256",
          "name": "amount",
          "type": "uint256"
        },
        {
          "indexed": false,
          "internalType": "address",
          "name": "recipient",
          "type": "address"
        }
      ],
      "name": "Withdrawn",
      "type": "event"
    },
    {
      "inputs": [
        {
          "internalType": "uint256",
          "name": "_id",
          "type": "uint256"
        }
      ],
      "name": "activateProject",
      "outputs": [],
      "stateMutability": "nonpayable",
      "type": "function"
    },
    {
      "inputs": [
        {
          "internalType": "string",
          "name": "_name",
          "type": "string"
        },
        {
          "internalType": "string",
          "name": "_description",
          "type": "string"
        },
        {
          "internalType": "address payable",
          "name": "_recipient",
          "type": "address"
        }
      ],
      "name": "createProject",
      "outputs": [],
      "stateMutability": "payable",
      "type": "function"
    },
    {
      "inputs": [
        {
          "internalType": "uint256",
          "name": "_id",
          "type": "uint256"
        }
      ],
      "name": "deactivateProject",
      "outputs": [],
      "stateMutability": "nonpayable",
      "type": "function"
    },
    {
      "inputs": [
        {
          "internalType": "uint256",
          "name": "_id",
          "type": "uint256"
        }
      ],
      "name": "fundProject",
      "outputs": [],
      "stateMutability": "payable",
      "type": "function"
    },
    {
      "inputs": [],
      "name": "getContractBalance",
      "outputs": [
        {
          "internalType": "uint256",
          "name": "",
          "type": "uint256"
        }
      ],
      "stateMutability": "view",
      "type": "function"
    },
    {
      "inputs": [
        {
          "internalType": "uint256",
          "name": "_id",
          "type": "uint256"
        }
      ],
      "name": "getProjectDetails",
      "outputs": [
        {
          "internalType": "string",
          "name": "",
          "type": "string"
        },
        {
          "internalType": "string",
          "name": "",
          "type": "string"
        },
        {
          "internalType": "uint256",
          "name": "",
          "type": "uint256"
        },
        {
          "internalType": "address",
          "name": "",
          "type": "address"
        },
        {
          "internalType": "bool",
          "name": "",
          "type": "bool"
        }
      ],
      "stateMutability": "view",
      "type": "function"
    },
    {
      "inputs": [],
      "name": "owner",
      "outputs": [
        {
          "internalType": "address",
          "name": "",
          "type": "address"
        }
      ],
      "stateMutability": "view",
      "type": "function"
    },
    {
      "inputs": [],
      "name": "projectCount",
      "outputs": [
        {
          "internalType": "uint256",
          "name": "",
          "type": "uint256"
        }
      ],
      "stateMutability": "view",
      "type": "function"
    },
    {
      "inputs": [],
      "name": "projectCreationFee",
      "outputs": [
        {
          "internalType": "uint256",
          "name": "",
          "type": "uint256"
        }
      ],
      "stateMutability": "view",
      "type": "function"
    },
    {
      "inputs": [
        {
          "internalType": "uint256",
          "name": "",
          "type": "uint256"
        }
      ],
      "name": "projects",
      "outputs": [
        {
          "internalType": "uint256",
          "name": "id",
          "type": "uint256"
        },
        {
          "internalType": "string",
          "name": "name",
          "type": "string"
        },
        {
          "internalType": "string",
          "name": "description",
          "type": "string"
        },
        {
          "internalType": "uint256",
          "name": "currentFunding",
          "type": "uint256"
        },
        {
          "internalType": "address payable",
          "name": "recipient",
          "type": "address"
        },
        {
          "internalType": "bool",
          "name": "isActive",
          "type": "bool"
        }
      ],
      "stateMutability": "view",
      "type": "function"
    },
    {
      "inputs": [
        {
          "internalType": "uint256",
          "name": "_fee",
          "type": "uint256"
        }
      ],
      "name": "updateProjectCreationFee",
      "outputs": [],
      "stateMutability": "nonpayable",
      "type": "function"
    },
    {
      "inputs": [
        {
          "internalType": "uint256",
          "name": "_id",
          "type": "uint256"
        }
      ],
      "name": "withdraw",
      "outputs": [],
      "stateMutability": "nonpayable",
      "type": "function"
    },
    {
      "inputs": [],
      "name": "withdrawFees",
      "outputs": [],
      "stateMutability": "nonpayable",
      "type": "function"
    }
  ],
  "bytecode": "0x608060405260006001556611c37937e08000600255348015601f57600080fd5b50336000806101000a81548173ffffffffffffffffffffffffffffffffffffffff021916908373ffffffffffffffffffffffffffffffffffffffff16021790555061223c8061006f6000396000f3fe6080604052600436106100c25760003560e01c80635f8439e31161007f5780636c563abe116100595780636c563abe1461024e5780636f9fb98a1461026a5780638da5cb5b14610295578063eca8d23c146102c0576100c2565b80635f8439e3146101c657806360ae1e92146102075780636bad654114610223576100c2565b8063107046bd146100c75780632e1a7d4d1461010957806336fbad261461013257806341544a821461015d578063436e695814610186578063476343ee146101af575b600080fd5b3480156100d357600080fd5b506100ee60048036038101906100e991906113a3565b6102e9565b604051610100969594939291906114cb565b60405180910390f35b34801561011557600080fd5b50610130600480360381019061012b91906113a3565b610462565b005b34801561013e57600080fd5b50610147610769565b604051610154919061153a565b60405180910390f35b34801561016957600080fd5b50610184600480360381019061017f91906113a3565b61076f565b005b34801561019257600080fd5b506101ad60048036038101906101a891906113a3565b6108ca565b005b3480156101bb57600080fd5b506101c4610a92565b005b3480156101d257600080fd5b506101ed60048036038101906101e891906113a3565b610c39565b6040516101fe959493929190611576565b60405180910390f35b610221600480360381019061021c9190611738565b610e38565b005b34801561022f57600080fd5b506102386110b0565b604051610245919061153a565b60405180910390f35b610268600480360381019061026391906113a3565b6110b6565b005b34801561027657600080fd5b5061027f6111cf565b60405161028c919061153a565b60405180910390f35b3480156102a157600080fd5b506102aa611266565b6040516102b791906117c3565b60405180910390f35b3480156102cc57600080fd5b506102e760048036038101906102e291906113a3565b61128a565b005b60036020528060005260406000206000915090508060000154908060010180546103129061180d565b80601f016020809104026020016040519081016040528092919081815260200182805461033e9061180d565b801561038b5780601f106103605761010080835404028352916020019161038b565b820191906000526020600020905b81548152906001019060200180831161036e57829003601f168201915b5050505050908060020180546103a09061180d565b80601f01602080910402602001604051908101604052809291908181526020018280546103cc9061180d565b80156104195780601f106103ee57610100808354040283529160200191610419565b820191906000526020600020905b8154815290600101906020018083116103fc57829003601f168201915b5050505050908060030154908060040160009054906101000a900473ffffffffffffffffffffffffffffffffffffffff16908060040160149054906101000a900460ff16905086565b8060008054906101000a900473ffffffffffffffffffffffffffffffffffffffff1673ffffffffffffffffffffffffffffffffffffffff163373ffffffffffffffffffffffffffffffffffffffff16148061051e57506003600082815260200190815260200160002060040160009054906101000a900473ffffffffffffffffffffffffffffffffffffffff1673ffffffffffffffffffffffffffffffffffffffff163373ffffffffffffffffffffffffffffffffffffffff16145b61055d576040517f08c379a0000000000000000000000000000000000000000000000000000000008152600401610554906118b0565b60405180910390fd5b816003600082815260200190815260200160002060040160149054906101000a900460ff166105c1576040517f08c379a00000000000000000000000000000000000000000000000000000000081526004016105b89061191c565b60405180910390fd5b6000600360008581526020019081526020016000209050600081600301541161061f576040517f08c379a000000000000000000000000000000000000000000000000000000000815260040161061690611988565b60405180910390fd5b6000816003015490506000826003018190555060008260040160009054906101000a900473ffffffffffffffffffffffffffffffffffffffff1673ffffffffffffffffffffffffffffffffffffffff168260405161067c906119d9565b60006040518083038185875af1925050503d80600081146106b9576040519150601f19603f3d011682016040523d82523d6000602084013e6106be565b606091505b5050905080610702576040517f08c379a00000000000000000000000000000000000000000000000000000000081526004016106f990611a3a565b60405180910390fd5b7f02ffa641367f5b897c0f8be81bce51f2ef055b4113d7a1e4fd082feea749bf5286838560040160009054906101000a900473ffffffffffffffffffffffffffffffffffffffff1660405161075993929190611ab9565b60405180910390a1505050505050565b60015481565b60008054906101000a900473ffffffffffffffffffffffffffffffffffffffff1673ffffffffffffffffffffffffffffffffffffffff163373ffffffffffffffffffffffffffffffffffffffff16146107fd576040517f08c379a00000000000000000000000000000000000000000000000000000000081526004016107f490611b62565b60405180910390fd5b6003600082815260200190815260200160002060040160149054906101000a900460ff1615610861576040517f08c379a000000000000000000000000000000000000000000000000000000000815260040161085890611bce565b60405180910390fd5b60016003600083815260200190815260200160002060040160146101000a81548160ff0219169083151502179055507fa24f98fafda171640bd6bc2dfff773d30beccd904d6c386e658a1c79f9e76663816040516108bf919061153a565b60405180910390a150565b8060008054906101000a900473ffffffffffffffffffffffffffffffffffffffff1673ffffffffffffffffffffffffffffffffffffffff163373ffffffffffffffffffffffffffffffffffffffff16148061098657506003600082815260200190815260200160002060040160009054906101000a900473ffffffffffffffffffffffffffffffffffffffff1673ffffffffffffffffffffffffffffffffffffffff163373ffffffffffffffffffffffffffffffffffffffff16145b6109c5576040517f08c379a00000000000000000000000000000000000000000000000000000000081526004016109bc906118b0565b60405180910390fd5b6003600083815260200190815260200160002060040160149054906101000a900460ff16610a28576040517f08c379a0000000000000000000000000000000000000000000000000000000008152600401610a1f90611c3a565b60405180910390fd5b60006003600084815260200190815260200160002060040160146101000a81548160ff0219169083151502179055507f32619b1c1bac9b073234f8ace80ba5659d4a461276966921ca62cc24a32c7ff382604051610a86919061153a565b60405180910390a15050565b60008054906101000a900473ffffffffffffffffffffffffffffffffffffffff1673ffffffffffffffffffffffffffffffffffffffff163373ffffffffffffffffffffffffffffffffffffffff1614610b20576040517f08c379a0000000000000000000000000000000000000000000000000000000008152600401610b1790611b62565b60405180910390fd5b600047905060008111610b68576040517f08c379a0000000000000000000000000000000000000000000000000000000008152600401610b5f90611ca6565b60405180910390fd5b60008060009054906101000a900473ffffffffffffffffffffffffffffffffffffffff1673ffffffffffffffffffffffffffffffffffffffff1682604051610baf906119d9565b60006040518083038185875af1925050503d8060008114610bec576040519150601f19603f3d011682016040523d82523d6000602084013e610bf1565b606091505b5050905080610c35576040517f08c379a0000000000000000000000000000000000000000000000000000000008152600401610c2c90611a3a565b60405180910390fd5b5050565b606080600080600080600360008881526020019081526020016000206040518060c001604052908160008201548152602001600182018054610c7a9061180d565b80601f0160208091040260200160405190810160405280929190818152602001828054610ca69061180d565b8015610cf35780601f10610cc857610100808354040283529160200191610cf3565b820191906000526020600020905b815481529060010190602001808311610cd657829003601f168201915b50505050508152602001600282018054610d0c9061180d565b80601f0160208091040260200160405190810160405280929190818152602001828054610d389061180d565b8015610d855780601f10610d5a57610100808354040283529160200191610d85565b820191906000526020600020905b815481529060010190602001808311610d6857829003601f168201915b50505050508152602001600382015481526020016004820160009054906101000a900473ffffffffffffffffffffffffffffffffffffffff1673ffffffffffffffffffffffffffffffffffffffff1673ffffffffffffffffffffffffffffffffffffffff1681526020016004820160149054906101000a900460ff161515151581525050905080602001518160400151826060015183608001518460a00151955095509550955095505091939590929450565b600254341015610e7d576040517f08c379a0000000000000000000000000000000000000000000000000000000008152600401610e7490611d38565b60405180910390fd5b600254341115610edc573373ffffffffffffffffffffffffffffffffffffffff166108fc60025434610eaf9190611d87565b9081150290604051600060405180830381858888f19350505050158015610eda573d6000803e3d6000fd5b505b600073ffffffffffffffffffffffffffffffffffffffff168173ffffffffffffffffffffffffffffffffffffffff1603610f4b576040517f08c379a0000000000000000000000000000000000000000000000000000000008152600401610f4290611e07565b60405180910390fd5b60016000815480929190610f5e90611e27565b91905055506040518060c001604052806001548152602001848152602001838152602001600081526020018273ffffffffffffffffffffffffffffffffffffffff16815260200160011515815250600360006001548152602001908152602001600020600082015181600001556020820151816001019081610fe09190612011565b506040820151816002019081610ff69190612011565b506060820151816003015560808201518160040160006101000a81548173ffffffffffffffffffffffffffffffffffffffff021916908373ffffffffffffffffffffffffffffffffffffffff16021790555060a08201518160040160146101000a81548160ff0219169083151502179055509050507f52072c0d054208d6383d75d3ccccf92145d7eb8cd784fa1c4393f5badb2c495b600154848360016040516110a394939291906120e3565b60405180910390a1505050565b60025481565b806003600082815260200190815260200160002060040160149054906101000a900460ff1661111a576040517f08c379a00000000000000000000000000000000000000000000000000000000081526004016111119061191c565b60405180910390fd5b600060036000848152602001908152602001600020905060003411611174576040517f08c379a000000000000000000000000000000000000000000000000000000000815260040161116b9061217b565b60405180910390fd5b34816003016000828254611188919061219b565b925050819055507f2fdf62f5c0eab6215e63610ec1dc0acf8ed2f6d38ab5bdf08fcffc99be3c6ba88334336040516111c2939291906121cf565b60405180910390a1505050565b60008060009054906101000a900473ffffffffffffffffffffffffffffffffffffffff1673ffffffffffffffffffffffffffffffffffffffff163373ffffffffffffffffffffffffffffffffffffffff1614611260576040517f08c379a000000000000000000000000000000000000000000000000000000000815260040161125790611b62565b60405180910390fd5b47905090565b60008054906101000a900473ffffffffffffffffffffffffffffffffffffffff1681565b60008054906101000a900473ffffffffffffffffffffffffffffffffffffffff1673ffffffffffffffffffffffffffffffffffffffff163373ffffffffffffffffffffffffffffffffffffffff1614611318576040517f08c379a000000000000000000000000000000000000000000000000000000000815260040161130f90611b62565b60405180910390fd5b806002819055507f8c4d35e54a3f2ef1134138fd8ea3daee6a3c89e10d2665996babdf70261e2c768160405161134e919061153a565b60405180910390a150565b6000604051905090565b600080fd5b600080fd5b6000819050919050565b6113808161136d565b811461138b57600080fd5b50565b60008135905061139d81611377565b92915050565b6000602082840312156113b9576113b8611363565b5b60006113c78482850161138e565b91505092915050565b6113d98161136d565b82525050565b600081519050919050565b600082825260208201905092915050565b60005b838110156114195780820151818401526020810190506113fe565b60008484015250505050565b6000601f19601f8301169050919050565b6000611441826113df565b61144b81856113ea565b935061145b8185602086016113fb565b61146481611425565b840191505092915050565b600073ffffffffffffffffffffffffffffffffffffffff82169050919050565b600061149a8261146f565b9050919050565b6114aa8161148f565b82525050565b60008115159050919050565b6114c5816114b0565b82525050565b600060c0820190506114e060008301896113d0565b81810360208301526114f28188611436565b905081810360408301526115068187611436565b905061151560608301866113d0565b61152260808301856114a1565b61152f60a08301846114bc565b979650505050505050565b600060208201905061154f60008301846113d0565b92915050565b60006115608261146f565b9050919050565b61157081611555565b82525050565b600060a08201905081810360008301526115908188611436565b905081810360208301526115a48187611436565b90506115b360408301866113d0565b6115c06060830185611567565b6115cd60808301846114bc565b9695505050505050565b600080fd5b600080fd5b7f4e487b7100000000000000000000000000000000000000000000000000000000600052604160045260246000fd5b61161982611425565b810181811067ffffffffffffffff82111715611638576116376115e1565b5b80604052505050565b600061164b611359565b90506116578282611610565b919050565b600067ffffffffffffffff821115611677576116766115e1565b5b61168082611425565b9050602081019050919050565b82818337600083830152505050565b60006116af6116aa8461165c565b611641565b9050828152602081018484840111156116cb576116ca6115dc565b5b6116d684828561168d565b509392505050565b600082601f8301126116f3576116f26115d7565b5b813561170384826020860161169c565b91505092915050565b6117158161148f565b811461172057600080fd5b50565b6000813590506117328161170c565b92915050565b60008060006060848603121561175157611750611363565b5b600084013567ffffffffffffffff81111561176f5761176e611368565b5b61177b868287016116de565b935050602084013567ffffffffffffffff81111561179c5761179b611368565b5b6117a8868287016116de565b92505060406117b986828701611723565b9150509250925092565b60006020820190506117d86000830184611567565b92915050565b7f4e487b7100000000000000000000000000000000000000000000000000000000600052602260045260246000fd5b6000600282049050600182168061182557607f821691505b602082108103611838576118376117de565b5b50919050565b7f4f6e6c79206f776e6572206f7220726563697069656e742063616e207065726660008201527f6f726d207468697320616374696f6e0000000000000000000000000000000000602082015250565b600061189a602f836113ea565b91506118a58261183e565b604082019050919050565b600060208201905081810360008301526118c98161188d565b9050919050565b7f50726f6a656374206973206e6f74206163746976650000000000000000000000600082015250565b60006119066015836113ea565b9150611911826118d0565b602082019050919050565b60006020820190508181036000830152611935816118f9565b9050919050565b7f4e6f2066756e647320746f207769746864726177000000000000000000000000600082015250565b60006119726014836113ea565b915061197d8261193c565b602082019050919050565b600060208201905081810360008301526119a181611965565b9050919050565b600081905092915050565b50565b60006119c36000836119a8565b91506119ce826119b3565b600082019050919050565b60006119e4826119b6565b9150819050919050565b7f5472616e73666572206661696c65640000000000000000000000000000000000600082015250565b6000611a24600f836113ea565b9150611a2f826119ee565b602082019050919050565b60006020820190508181036000830152611a5381611a17565b9050919050565b6000819050919050565b6000611a7f611a7a611a758461146f565b611a5a565b61146f565b9050919050565b6000611a9182611a64565b9050919050565b6000611aa382611a86565b9050919050565b611ab381611a98565b82525050565b6000606082019050611ace60008301866113d0565b611adb60208301856113d0565b611ae86040830184611aaa565b949350505050565b7f4f6e6c7920746865206f776e65722063616e20706572666f726d20746869732060008201527f616374696f6e0000000000000000000000000000000000000000000000000000602082015250565b6000611b4c6026836113ea565b9150611b5782611af0565b604082019050919050565b60006020820190508181036000830152611b7b81611b3f565b9050919050565b7f50726f6a65637420697320616c72656164792061637469766500000000000000600082015250565b6000611bb86019836113ea565b9150611bc382611b82565b602082019050919050565b60006020820190508181036000830152611be781611bab565b9050919050565b7f50726f6a65637420697320616c726561647920696e6163746976650000000000600082015250565b6000611c24601b836113ea565b9150611c2f82611bee565b602082019050919050565b60006020820190508181036000830152611c5381611c17565b9050919050565b7f4e6f206665657320746f20776974686472617700000000000000000000000000600082015250565b6000611c906013836113ea565b9150611c9b82611c5a565b602082019050919050565b60006020820190508181036000830152611cbf81611c83565b9050919050565b7f496e73756666696369656e742066656520666f722070726f6a6563742063726560008201527f6174696f6e000000000000000000000000000000000000000000000000000000602082015250565b6000611d226025836113ea565b9150611d2d82611cc6565b604082019050919050565b60006020820190508181036000830152611d5181611d15565b9050919050565b7f4e487b7100000000000000000000000000000000000000000000000000000000600052601160045260246000fd5b6000611d928261136d565b9150611d9d8361136d565b9250828203905081811115611db557611db4611d58565b5b92915050565b7f496e76616c696420726563697069656e74206164647265737300000000000000600082015250565b6000611df16019836113ea565b9150611dfc82611dbb565b602082019050919050565b60006020820190508181036000830152611e2081611de4565b9050919050565b6000611e328261136d565b91507fffffffffffffffffffffffffffffffffffffffffffffffffffffffffffffffff8203611e6457611e63611d58565b5b600182019050919050565b60008190508160005260206000209050919050565b60006020601f8301049050919050565b600082821b905092915050565b600060088302611ed17fffffffffffffffffffffffffffffffffffffffffffffffffffffffffffffffff82611e94565b611edb8683611e94565b95508019841693508086168417925050509392505050565b6000611f0e611f09611f048461136d565b611a5a565b61136d565b9050919050565b6000819050919050565b611f2883611ef3565b611f3c611f3482611f15565b848454611ea1565b825550505050565b600090565b611f51611f44565b611f5c818484611f1f565b505050565b5b81811015611f8057611f75600082611f49565b600181019050611f62565b5050565b601f821115611fc557611f9681611e6f565b611f9f84611e84565b81016020851015611fae578190505b611fc2611fba85611e84565b830182611f61565b50505b505050565b600082821c905092915050565b6000611fe860001984600802611fca565b1980831691505092915050565b60006120018383611fd7565b9150826002028217905092915050565b61201a826113df565b67ffffffffffffffff811115612033576120326115e1565b5b61203d825461180d565b612048828285611f84565b600060209050601f83116001811461207b5760008415612069578287015190505b6120738582611ff5565b8655506120db565b601f19841661208986611e6f565b60005b828110156120b15784890151825560018201915060208501945060208101905061208c565b868310156120ce57848901516120ca601f891682611fd7565b8355505b6001600288020188555050505b505050505050565b60006080820190506120f860008301876113d0565b818103602083015261210a8186611436565b90506121196040830185611aaa565b61212660608301846114bc565b95945050505050565b7f446f6e6174696f6e206d7573742062652067726561746572207468616e203000600082015250565b6000612165601f836113ea565b91506121708261212f565b602082019050919050565b6000602082019050818103600083015261219481612158565b9050919050565b60006121a68261136d565b91506121b18361136d565b92508282019050808211156121c9576121c8611d58565b5b92915050565b60006060820190506121e460008301866113d0565b6121f160208301856113d0565b6121fe6040830184611567565b94935050505056fea2646970667358221220ac969eca2b95f67d8825fb0c58812dbc995485c6007f9e86cd16f146c6f887f964736f6c634300081c0033",
  "linkReferences": {},
  "deployedLinkReferences": {}
}